:100000000C9434000C9451000C9451000C94510049
:100010000C9451000C9451000C9451000C9451001C
:100020000C9451000C9451000C9451000C9451000C
:100030000C9451000C9451000C9451000C945100FC
:100040000C9451000C9451000C9451000C945100EC
:100050000C9451000C9451000C9451000C945100DC
:100060000C9451000C94510011241FBECFEFD8E026
:10007000DEBFCDBF11E0A0E0B1E0EEE3F1E002C0F1
:1000800005900D92A030B107D9F711E0A0E0B1E0E2
:1000900001C01D92A030B107E1F70E9476000C94D8
:1000A0009D000C940000ECE7F0E080818064808388
:1000B000EAE7F0E08081876880830895ECE7F0E06C
:1000C00090818770982B9083EAE7F0E080818064CC
:1000D0008083808184FFFDCFEAE7F0E0808180614A
:1000E0008083809178009091790008958FEF84B992
:1000F0000E94530000E010E0CFEFD3E080E00E94C8
:100100005E00AC01289A0097A1F09C01C801000094
:10011000019682179307D9F72898CE01841B950B77
:1001200069F309C000002F5F3F4F2817390730F7E8
:0E013000F9CF2898CE019801F5CFF894FFCFB3
:00000001FF
