:100000000C9434000C9451000C9451000C94510049
:100010000C9451000C9451000C9451000C9451001C
:100020000C9451000C9451000C9451000C9451000C
:100030000C9451000C9451000C9451000C945100FC
:100040000C9451000C9451000C9451000C945100EC
:100050000C9451000C9451000C9451000C945100DC
:100060000C9451000C94510011241FBECFEFD8E026
:10007000DEBFCDBF11E0A0E0B1E0ECE4F1E002C0F2
:1000800005900D92A030B107D9F711E0A0E0B1E0E2
:1000900001C01D92A030B107E1F70E9476000C94D8
:1000A000A4000C940000ECE7F0E080818064808381
:1000B000EAE7F0E08081876880830895ECE7F0E06C
:1000C00090818770982B9083EAE7F0E080818064CC
:1000D0008083808184FFFDCFEAE7F0E0808180614A
:1000E0008083809178009091790008958FEF84B992
:1000F0008AB90E945300EE24FF24E39404E110E047
:10010000C0E0D0E080E00E945E00009709F4C701E3
:10011000A8019C0128513C4F289A2115310549F02E
:10012000CE0162E06A95F1F700C00196821793074D
:10013000C0F328988FE99CE80197F1F700C0000010
:0C0140004150504049F7DECFF894FFCF4B
:00000001FF
