:100000000C9434000C9451000C9451000C94510049
:100010000C9451000C9451000C9451000C9451001C
:100020000C9451000C9451000C9451000C9451000C
:100030000C9451000C9451000C9451000C945100FC
:100040000C9451000C9451000C9451000C945100EC
:100050000C9451000C9451000C9451000C945100DC
:100060000C9451000C94510011241FBECFEFD8E026
:10007000DEBFCDBF11E0A0E0B1E0ECE4F1E002C0F2
:1000800005900D92A030B107D9F711E0A0E0B1E0E2
:1000900001C01D92A030B107E1F70E9484000C94CA
:1000A000A4000C940000009759F020E030E042E0FA
:1000B0004A95F1F700C02F5F3F4F28173907B9F76E
:1000C0000895ECE7F0E0808180648083EAE7F0E067
:1000D0008081876880830895ECE7F0E090818770E5
:1000E000982B9083EAE7F0E08081806480838081B0
:1000F00084FFFDCFEAE7F0E080818061808380911A
:1001000078009091790008958FEF84B90E94610082
:1001100001E012E0FF246894F2F8EE246894E3F81A
:1001200080E00E946C00EC0105B90E94530015B9F3
:10013000CE010E945300F5B8CE010E945300E5B8ED
:0C014000CE010E945300ECCFF894FFCFDA
:00000001FF
